{
    "contractName": "CITY_BNB",
    "abi": [
        {
            "inputs": [],
            "stateMutability": "nonpayable",
            "type": "constructor"
        },
        {
            "anonymous": false,
            "inputs": [
                {
                    "indexed": true,
                    "internalType": "address",
                    "name": "owner",
                    "type": "address"
                },
                {
                    "indexed": true,
                    "internalType": "address",
                    "name": "spender",
                    "type": "address"
                },
                {
                    "indexed": false,
                    "internalType": "uint256",
                    "name": "value",
                    "type": "uint256"
                }
            ],
            "name": "Approval",
            "type": "event"
        },
        {
            "anonymous": false,
            "inputs": [
                {
                    "indexed": true,
                    "internalType": "address",
                    "name": "from",
                    "type": "address"
                },
                {
                    "indexed": true,
                    "internalType": "address",
                    "name": "to",
                    "type": "address"
                },
                {
                    "indexed": false,
                    "internalType": "uint256",
                    "name": "value",
                    "type": "uint256"
                }
            ],
            "name": "Transfer",
            "type": "event"
        },
        {
            "inputs": [
                {
                    "internalType": "address",
                    "name": "owner",
                    "type": "address"
                },
                {
                    "internalType": "address",
                    "name": "spender",
                    "type": "address"
                }
            ],
            "name": "allowance",
            "outputs": [
                {
                    "internalType": "uint256",
                    "name": "",
                    "type": "uint256"
                }
            ],
            "stateMutability": "view",
            "type": "function"
        },
        {
            "inputs": [
                {
                    "internalType": "address",
                    "name": "spender",
                    "type": "address"
                },
                {
                    "internalType": "uint256",
                    "name": "amount",
                    "type": "uint256"
                }
            ],
            "name": "approve",
            "outputs": [
                {
                    "internalType": "bool",
                    "name": "",
                    "type": "bool"
                }
            ],
            "stateMutability": "nonpayable",
            "type": "function"
        },
        {
            "inputs": [
                {
                    "internalType": "address",
                    "name": "account",
                    "type": "address"
                }
            ],
            "name": "balanceOf",
            "outputs": [
                {
                    "internalType": "uint256",
                    "name": "",
                    "type": "uint256"
                }
            ],
            "stateMutability": "view",
            "type": "function"
        },
        {
            "inputs": [
                {
                    "internalType": "uint256",
                    "name": "amount",
                    "type": "uint256"
                }
            ],
            "name": "burn",
            "outputs": [],
            "stateMutability": "nonpayable",
            "type": "function"
        },
        {
            "inputs": [
                {
                    "internalType": "address",
                    "name": "i",
                    "type": "address"
                }
            ],
            "name": "check_admin",
            "outputs": [
                {
                    "internalType": "bool",
                    "name": "",
                    "type": "bool"
                }
            ],
            "stateMutability": "view",
            "type": "function"
        },
        {
            "inputs": [],
            "name": "decimals",
            "outputs": [
                {
                    "internalType": "uint8",
                    "name": "",
                    "type": "uint8"
                }
            ],
            "stateMutability": "view",
            "type": "function"
        },
        {
            "inputs": [
                {
                    "internalType": "address",
                    "name": "spender",
                    "type": "address"
                },
                {
                    "internalType": "uint256",
                    "name": "subtractedValue",
                    "type": "uint256"
                }
            ],
            "name": "decreaseAllowance",
            "outputs": [
                {
                    "internalType": "bool",
                    "name": "",
                    "type": "bool"
                }
            ],
            "stateMutability": "nonpayable",
            "type": "function"
        },
        {
            "inputs": [
                {
                    "internalType": "address",
                    "name": "to",
                    "type": "address"
                }
            ],
            "name": "get_locked_account",
            "outputs": [
                {
                    "internalType": "bool",
                    "name": "",
                    "type": "bool"
                }
            ],
            "stateMutability": "view",
            "type": "function"
        },
        {
            "inputs": [],
            "name": "get_mint_completed",
            "outputs": [
                {
                    "internalType": "bool",
                    "name": "",
                    "type": "bool"
                }
            ],
            "stateMutability": "view",
            "type": "function"
        },
        {
            "inputs": [],
            "name": "get_total_withdrawal_limit",
            "outputs": [
                {
                    "internalType": "uint256",
                    "name": "",
                    "type": "uint256"
                }
            ],
            "stateMutability": "view",
            "type": "function"
        },
        {
            "inputs": [
                {
                    "internalType": "address",
                    "name": "to",
                    "type": "address"
                }
            ],
            "name": "get_withdrawal_limit",
            "outputs": [
                {
                    "internalType": "uint256",
                    "name": "",
                    "type": "uint256"
                }
            ],
            "stateMutability": "view",
            "type": "function"
        },
        {
            "inputs": [
                {
                    "internalType": "address",
                    "name": "spender",
                    "type": "address"
                },
                {
                    "internalType": "uint256",
                    "name": "addedValue",
                    "type": "uint256"
                }
            ],
            "name": "increaseAllowance",
            "outputs": [
                {
                    "internalType": "bool",
                    "name": "",
                    "type": "bool"
                }
            ],
            "stateMutability": "nonpayable",
            "type": "function"
        },
        {
            "inputs": [
                {
                    "internalType": "uint256",
                    "name": "amount",
                    "type": "uint256"
                }
            ],
            "name": "mint",
            "outputs": [],
            "stateMutability": "nonpayable",
            "type": "function"
        },
        {
            "inputs": [
                {
                    "internalType": "address",
                    "name": "to",
                    "type": "address"
                },
                {
                    "internalType": "uint256",
                    "name": "amount",
                    "type": "uint256"
                }
            ],
            "name": "mint_withdrawal_limit",
            "outputs": [],
            "stateMutability": "nonpayable",
            "type": "function"
        },
        {
            "inputs": [],
            "name": "name",
            "outputs": [
                {
                    "internalType": "string",
                    "name": "",
                    "type": "string"
                }
            ],
            "stateMutability": "view",
            "type": "function"
        },
        {
            "inputs": [
                {
                    "internalType": "address",
                    "name": "i",
                    "type": "address"
                }
            ],
            "name": "set_admin",
            "outputs": [],
            "stateMutability": "nonpayable",
            "type": "function"
        },
        {
            "inputs": [],
            "name": "set_mint_completed",
            "outputs": [],
            "stateMutability": "nonpayable",
            "type": "function"
        },
        {
            "inputs": [],
            "name": "symbol",
            "outputs": [
                {
                    "internalType": "string",
                    "name": "",
                    "type": "string"
                }
            ],
            "stateMutability": "view",
            "type": "function"
        },
        {
            "inputs": [],
            "name": "totalSupply",
            "outputs": [
                {
                    "internalType": "uint256",
                    "name": "",
                    "type": "uint256"
                }
            ],
            "stateMutability": "view",
            "type": "function"
        },
        {
            "inputs": [
                {
                    "internalType": "address",
                    "name": "to",
                    "type": "address"
                },
                {
                    "internalType": "uint256",
                    "name": "amount",
                    "type": "uint256"
                }
            ],
            "name": "transfer",
            "outputs": [
                {
                    "internalType": "bool",
                    "name": "",
                    "type": "bool"
                }
            ],
            "stateMutability": "nonpayable",
            "type": "function"
        },
        {
            "inputs": [
                {
                    "internalType": "address",
                    "name": "from",
                    "type": "address"
                },
                {
                    "internalType": "address",
                    "name": "to",
                    "type": "address"
                },
                {
                    "internalType": "uint256",
                    "name": "amount",
                    "type": "uint256"
                }
            ],
            "name": "transferFrom",
            "outputs": [
                {
                    "internalType": "bool",
                    "name": "",
                    "type": "bool"
                }
            ],
            "stateMutability": "nonpayable",
            "type": "function"
        }
    ],
    "bytecode": "60806040526005805460ff60a01b191690553480156200001e57600080fd5b506040518060400160405280600a8152602001695365636f6e644369747960b01b815250604051806040016040528060048152602001634349545960e01b815250816003908162000070919062000153565b5060046200007f828262000153565b5050600580546001600160a01b03191673139228bed288c0f81353fddafd86b366799a6d4c179055506200021f565b634e487b7160e01b600052604160045260246000fd5b600181811c90821680620000d957607f821691505b602082108103620000fa57634e487b7160e01b600052602260045260246000fd5b50919050565b601f8211156200014e57600081815260208120601f850160051c81016020861015620001295750805b601f850160051c820191505b818110156200014a5782815560010162000135565b5050505b505050565b81516001600160401b038111156200016f576200016f620000ae565b6200018781620001808454620000c4565b8462000100565b602080601f831160018114620001bf5760008415620001a65750858301515b600019600386901b1c1916600185901b1785556200014a565b600085815260208120601f198616915b82811015620001f057888601518255948401946001909101908401620001cf565b50858210156200020f5787850151600019600388901b60f8161c191681555b5050505050600190811b01905550565b611021806200022f6000396000f3fe608060405234801561001057600080fd5b50600436106101375760003560e01c806395d89b41116100b8578063a9059cbb1161007c578063a9059cbb14610289578063c071f37e1461029c578063d403044d146102c5578063dd62ed3e146102e7578063e9333fab14610320578063f625235f1461033357600080fd5b806395d89b411461021d57806396d66b0b14610225578063a0712d6814610237578063a227bb361461024a578063a457c2d71461027657600080fd5b806332a5dd09116100ff57806332a5dd09146101b157806339509351146101c657806342966c68146101d957806362569b7c146101ec57806370a08231146101f457600080fd5b806306fdde031461013c578063095ea7b31461015a57806318160ddd1461017d57806323b872dd1461018f578063313ce567146101a2575b600080fd5b61014461033b565b6040516101519190610e13565b60405180910390f35b61016d610168366004610e7d565b6103cd565b6040519015158152602001610151565b6002545b604051908152602001610151565b61016d61019d366004610ea7565b6103e7565b60405160128152602001610151565b6101c46101bf366004610e7d565b610460565b005b61016d6101d4366004610e7d565b6104f1565b6101c46101e7366004610ee3565b610530565b600854610181565b610181610202366004610efc565b6001600160a01b031660009081526020819052604090205490565b61014461058b565b600554600160a01b900460ff1661016d565b6101c4610245366004610ee3565b61059a565b61016d610258366004610efc565b6001600160a01b031660009081526006602052604090205460ff1690565b61016d610284366004610e7d565b610619565b61016d610297366004610e7d565b6106b6565b6101816102aa366004610efc565b6001600160a01b031660009081526007602052604090205490565b61016d6102d3366004610efc565b6005546001600160a01b0390811691161490565b6101816102f5366004610f1e565b6001600160a01b03918216600090815260016020908152604080832093909416825291909152205490565b6101c461032e366004610efc565b61071e565b6101c461076a565b60606003805461034a90610f51565b80601f016020809104026020016040519081016040528092919081815260200182805461037690610f51565b80156103c35780601f10610398576101008083540402835291602001916103c3565b820191906000526020600020905b8154815290600101906020018083116103a657829003601f168201915b5050505050905090565b6000336103db8185856107a9565b60019150505b92915050565b60006103f384836108ce565b6104365760405162461bcd60e51b815260206004820152600f60248201526e63616e6e6f7420776974686472617760881b60448201526064015b60405180910390fd5b61044184338461091e565b61044c8484846109b0565b6104568483610b7e565b5060019392505050565b6005546001600160a01b0316331461048a5760405162461bcd60e51b815260040161042d90610f8b565b6001600160a01b0382166000908152600660209081526040808320805460ff1916600117905560079091529020546104c3908290610fc5565b6001600160a01b0383166000908152600760205260409020556008546104ea908290610fc5565b6008555050565b3360008181526001602090815260408083206001600160a01b03871684529091528120549091906103db908290869061052b908790610fc5565b6107a9565b61053a33826108ce565b6105745760405162461bcd60e51b815260206004820152600b60248201526a31b0b73737ba10313ab93760a91b604482015260640161042d565b61057e3382610bee565b6105883382610b7e565b50565b60606004805461034a90610f51565b6005546001600160a01b031633146105c45760405162461bcd60e51b815260040161042d90610f8b565b600554600160a01b900460ff161561060f5760405162461bcd60e51b815260206004820152600e60248201526d1b5a5b9d0818dbdb5c1b195d195960921b604482015260640161042d565b6105883382610d34565b3360008181526001602090815260408083206001600160a01b03871684529091528120549091908381101561069e5760405162461bcd60e51b815260206004820152602560248201527f45524332303a2064656372656173656420616c6c6f77616e63652062656c6f77604482015264207a65726f60d81b606482015260840161042d565b6106ab82868684036107a9565b506001949350505050565b60006106c233836108ce565b6107005760405162461bcd60e51b815260206004820152600f60248201526e63616e6e6f7420776974686472617760881b604482015260640161042d565b61070b3384846109b0565b6107153383610b7e565b50600192915050565b6005546001600160a01b031633146107485760405162461bcd60e51b815260040161042d90610f8b565b600580546001600160a01b0319166001600160a01b0392909216919091179055565b6005546001600160a01b031633146107945760405162461bcd60e51b815260040161042d90610f8b565b6005805460ff60a01b1916600160a01b179055565b6001600160a01b03831661080b5760405162461bcd60e51b8152602060048201526024808201527f45524332303a20617070726f76652066726f6d20746865207a65726f206164646044820152637265737360e01b606482015260840161042d565b6001600160a01b03821661086c5760405162461bcd60e51b815260206004820152602260248201527f45524332303a20617070726f766520746f20746865207a65726f206164647265604482015261737360f01b606482015260840161042d565b6001600160a01b0383811660008181526001602090815260408083209487168084529482529182902085905590518481527f8c5be1e5ebec7d5bd14f71427d1e84f3dd0314c0f7b2291e5b200ac8c7c3b92591015b60405180910390a3505050565b6001600160a01b03821660009081526006602052604081205460ff1615610715576001600160a01b0383166000908152600760205260409020548211610916575060016103e1565b5060006103e1565b6001600160a01b0383811660009081526001602090815260408083209386168352929052205460001981146109aa578181101561099d5760405162461bcd60e51b815260206004820152601d60248201527f45524332303a20696e73756666696369656e7420616c6c6f77616e6365000000604482015260640161042d565b6109aa84848484036107a9565b50505050565b6001600160a01b038316610a145760405162461bcd60e51b815260206004820152602560248201527f45524332303a207472616e736665722066726f6d20746865207a65726f206164604482015264647265737360d81b606482015260840161042d565b6001600160a01b038216610a765760405162461bcd60e51b815260206004820152602360248201527f45524332303a207472616e7366657220746f20746865207a65726f206164647260448201526265737360e81b606482015260840161042d565b6001600160a01b03831660009081526020819052604090205481811015610aee5760405162461bcd60e51b815260206004820152602660248201527f45524332303a207472616e7366657220616d6f756e7420657863656564732062604482015265616c616e636560d01b606482015260840161042d565b6001600160a01b03808516600090815260208190526040808220858503905591851681529081208054849290610b25908490610fc5565b92505081905550826001600160a01b0316846001600160a01b03167fddf252ad1be2c89b69c2b068fc378daa952ba7f163c4a11628f55a4df523b3ef84604051610b7191815260200190565b60405180910390a36109aa565b6001600160a01b03821660009081526006602052604090205460ff1615610bea576001600160a01b038216600090815260076020526040902054610bc3908290610fd8565b6001600160a01b0383166000908152600760205260409020556008546104ea908290610fd8565b5050565b6001600160a01b038216610c4e5760405162461bcd60e51b815260206004820152602160248201527f45524332303a206275726e2066726f6d20746865207a65726f206164647265736044820152607360f81b606482015260840161042d565b6001600160a01b03821660009081526020819052604090205481811015610cc25760405162461bcd60e51b815260206004820152602260248201527f45524332303a206275726e20616d6f756e7420657863656564732062616c616e604482015261636560f01b606482015260840161042d565b6001600160a01b0383166000908152602081905260408120838303905560028054849290610cf1908490610fd8565b90915550506040518281526000906001600160a01b038516907fddf252ad1be2c89b69c2b068fc378daa952ba7f163c4a11628f55a4df523b3ef906020016108c1565b6001600160a01b038216610d8a5760405162461bcd60e51b815260206004820152601f60248201527f45524332303a206d696e7420746f20746865207a65726f206164647265737300604482015260640161042d565b8060026000828254610d9c9190610fc5565b90915550506001600160a01b03821660009081526020819052604081208054839290610dc9908490610fc5565b90915550506040518181526001600160a01b038316906000907fddf252ad1be2c89b69c2b068fc378daa952ba7f163c4a11628f55a4df523b3ef9060200160405180910390a35050565b600060208083528351808285015260005b81811015610e4057858101830151858201604001528201610e24565b506000604082860101526040601f19601f8301168501019250505092915050565b80356001600160a01b0381168114610e7857600080fd5b919050565b60008060408385031215610e9057600080fd5b610e9983610e61565b946020939093013593505050565b600080600060608486031215610ebc57600080fd5b610ec584610e61565b9250610ed360208501610e61565b9150604084013590509250925092565b600060208284031215610ef557600080fd5b5035919050565b600060208284031215610f0e57600080fd5b610f1782610e61565b9392505050565b60008060408385031215610f3157600080fd5b610f3a83610e61565b9150610f4860208401610e61565b90509250929050565b600181811c90821680610f6557607f821691505b602082108103610f8557634e487b7160e01b600052602260045260246000fd5b50919050565b6020808252600a908201526961646d696e206f6e6c7960b01b604082015260600190565b634e487b7160e01b600052601160045260246000fd5b808201808211156103e1576103e1610faf565b818103818111156103e1576103e1610faf56fea2646970667358221220c80bef2713d70483a392efe7a9380ecb9af7cef0844cb7b37c19903ebe4ccc9164736f6c63430008110033",
    "sourcePath": "d:/WORK/m_server_test/sol/CITY_BNB.sol",
    "compiler": {
        "name": "solc",
        "version": "0.8.17+commit.8df45f5f"
    },
    "functionHashes": {
        "allowance(address,address)": "dd62ed3e",
        "approve(address,uint256)": "095ea7b3",
        "balanceOf(address)": "70a08231",
        "burn(uint256)": "42966c68",
        "check_admin(address)": "d403044d",
        "decimals()": "313ce567",
        "decreaseAllowance(address,uint256)": "a457c2d7",
        "get_locked_account(address)": "a227bb36",
        "get_mint_completed()": "96d66b0b",
        "get_total_withdrawal_limit()": "62569b7c",
        "get_withdrawal_limit(address)": "c071f37e",
        "increaseAllowance(address,uint256)": "39509351",
        "mint(uint256)": "a0712d68",
        "mint_withdrawal_limit(address,uint256)": "32a5dd09",
        "name()": "06fdde03",
        "set_admin(address)": "e9333fab",
        "set_mint_completed()": "f625235f",
        "symbol()": "95d89b41",
        "totalSupply()": "18160ddd",
        "transfer(address,uint256)": "a9059cbb",
        "transferFrom(address,address,uint256)": "23b872dd"
    },
    "gasEstimates": {
        "creation": {
            "codeDepositCost": "825800",
            "executionCost": "infinite",
            "totalCost": "infinite"
        },
        "external": {
            "allowance(address,address)": "infinite",
            "approve(address,uint256)": "24652",
            "balanceOf(address)": "2651",
            "burn(uint256)": "infinite",
            "check_admin(address)": "2558",
            "decimals()": "289",
            "decreaseAllowance(address,uint256)": "27012",
            "get_locked_account(address)": "2638",
            "get_mint_completed()": "2366",
            "get_total_withdrawal_limit()": "2381",
            "get_withdrawal_limit(address)": "2581",
            "increaseAllowance(address,uint256)": "infinite",
            "mint(uint256)": "infinite",
            "mint_withdrawal_limit(address,uint256)": "infinite",
            "name()": "infinite",
            "set_admin(address)": "26821",
            "set_mint_completed()": "26652",
            "symbol()": "infinite",
            "totalSupply()": "2349",
            "transfer(address,uint256)": "infinite",
            "transferFrom(address,address,uint256)": "infinite"
        },
        "internal": {
            "_check_withdrawable(address,uint256)": "4464",
            "_sub_withdrawal(address,uint256)": "infinite"
        }
    }
}